:020000040800F2
:1000000000500020F90D00085108000853080008AE
:1000100055080008570800085908000800000000AB
:100020000000000000000000000000005B08000865
:100030005D080008000000005F080008410E00088D
:10004000410E0008410E0008410E0008410E000854
:10005000410E0008410E0008410E0008410E000844
:10006000410E0008410E0008410E0008410E000834
:10007000410E0008410E0008410E0008410E000824
:10008000410E0008410E0008410E0008410E000814
:10009000410E0008410E0008410E0008410E000804
:1000A000410E0008410E0008410E0008410E0008F4
:1000B000410E0008410E0008410E0008410E0008E4
:1000C000410E0008410E0008410E0008410E0008D4
:1000D000410E0008410E0008410E0008410E0008C4
:1000E000410E0008410E0008410E0008000000000B
:1000F0000000000000000000000000000000000000
:0C01000000000000000000005FF808F1A3
:10010C000348044B834202D0034B03B1184770479A
:10011C000000002000000020000000000548064BF5
:10012C001B1AD90F01EBA301491002D0034B03B1E9
:10013C00184770470000002000000020000000005D
:10014C0010B5064C237843B9FFF7DAFF044B13B113
:10015C000448AFF300800123237010BD0000002081
:10016C00000000008C0E000808B5054B1BB10549BA
:10017C000548AFF30080BDE80840FFF7CFBF00BFD4
:10018C0000000000040000208C0E000810B586B0A2
:10019C000121082000F002FD01214FF4001000F0B5
:1001AC000BFD1C238DF81730C023ADF8143003233E
:1001BC008DF8163005A9144800F04CFB134C0121A6
:1001CC00204600F052FC0021204600F04EFC4FF47B
:1001DC008063ADF80E304FF48043ADF810300C4B0B
:1001EC0001934BF6FF73ADF80A300023ADF80830DD
:1001FC00ADF80C3001A9204600F084FB012120460B
:10020C0000F0EEFB06B010BD000C014000540040A5
:10021C00A086010000B583B042F2107301934FF435
:10022C000031114800F03CFC40B1019B013B0193B3
:10023C00002BF4D11A46104603B000BD01210A4828
:10024C0000F0DCFB42F2107301930849064800F001
:10025C001AFC024628B9019B013B0193002BF4D1F7
:10026C00E9E70122E7E700BF00540040010003006A
:10027C0000B583B04100002201F0FE010A4800F0F5
:10028C00ECFB42F2107301930849074800F0FBFBAA
:10029C00024628B9019B013B0193002BF4D100E0ED
:1002AC000122104603B000BD00540040820007003C
:1002BC0000B583B04100012201F0FE010A4800F0B4
:1002CC00CCFB42F2107301930849074800F0DBFBAA
:1002DC00024628B9019B013B0193002BF4D100E0AD
:1002EC000122104603B000BD005400400200030080
:1002FC0000B583B001460B4800F0AAFB42F2107324
:10030C0001930949074800F0BEFB024628B9019B3E
:10031C00013B0193002BF4D100E00122104603B005
:10032C0000BD00BF005400408400070000B583B03E
:10033C0001210B4800F07EFB42F210730193094936
:10034C00074800F0A0FB30B9019B013B0193002B47
:10035C00F5D1FF2002E0024800F07CFB03B000BDA9
:10036C00005400404000030010B582B00E4C002138
:10037C00204600F05FFB0121204600F04DFB42F2CD
:10038C00107301930949084800F07DFB30B9019BBB
:10039C00013B0193002BF5D1FF2002E0024800F055
:1003AC0059FB02B010BD00BF0054004040000300D8
:1003BC0008B50121014800F02FFB08BD0054004096
:1003CC00064BA3FB0023DA08134602EB8202A0EBD8
:1003DC00420040EA0310C0B2704700BFCDCCCCCC79
:1003EC0000F00F03000900EB800003EB4000C0B2EB
:1003FC007047F8B506460D461746FFF70BFF044647
:10040C0008B92046F8BD6820FFF732FF044660B3F8
:10041C000020FFF76DFF044650B3FFF7C9FFFFF74D
:10042C00F9FE04460028ECD06820FFF741FF044693
:10043C0008B3FFF77BFF3870FFF778FF2870FFF7E2
:10044C0093FF3070387800F07F00FFF7C9FF3870E9
:10045C002878FFF7C5FF2870307800F03F00FFF7D1
:10046C00BFFF307001231C46CBE7FFF7A1FFC8E7A5
:10047C00FFF79EFFC5E7FFF79BFFC2E730B587B0DC
:10048C00012144F2040000F089FB18238DF8173089
:10049C004FF40073ADF8143003238DF8163005AD0E
:1004AC00154C2946204600F0D5F904238DF8173059
:1004BC004FF48063ADF814302946204600F0CAF999
:1004CC004FF4E13301930023ADF810300C22ADF85A
:1004DC000E20ADF80C30ADF80A30ADF8083004F54C
:1004EC00405401A9204600F075FB0121204600F084
:1004FC00D3FB07B030BD00BF0008014010B5044667
:10050C008021054800F0DAFB0028F9D0214602488A
:10051C0000F0D0FB10BD00BF0038014010B5044600
:10052C0002E00134FFF7EAFF20780028F9D110BD72
:10053C0000B583B00B4BA3FB0023DB0803F13002A7
:10054C008DF8042003EB8303A0EB430030308DF8CF
:10055C00050000238DF8063001A8FFF7DFFF03B07C
:10056C0000BD00BFCDCCCCCC70B504460D461646B4
:10057C00FFF750FE78B36820FFF77AFE78B30020BF
:10058C00FFF7B6FE3046FFF71BFF00F07F00FFF7CA
:10059C00AFFE2846FFF714FFFFF7AAFE2046FFF731
:1005AC000FFFFFF7A5FEFFF703FF1048FFF7B6FF9D
:1005BC002046FFF7BDFF3A20FFF7A0FF2846FFF7C4
:1005CC00B7FF3A20FFF79AFF3046FFF7B1FF0A203A
:1005DC00FFF794FF70BD0648FFF7A0FFFAE7FFF79F
:1005EC00E7FE0448FFF79AFFF4E700BFD00E0008BF
:1005FC00A40E0008BC0E000810B586B004460DF120
:10060C00040CDFF838E0BEE80F00ACE80F00DEF8B1
:10061C0000308CF8003006AB03EB141313F8140CF9
:10062C00FFF76CFF04F00F0404F118030DEB030447
:10063C0014F8140CFFF762FF06B010BDDC0E0008B6
:10064C00F0B583B005464648FFF768FF012425E066
:10065C00019B002B51D11E460121424800F0DCF9D0
:10066C00414B01934FF400313E4800F019FA88B128
:10067C00019B013B0193002BF4D13A4F01213846E9
:10068C0000F0F3F90021384600F0EFF9012138466B
:10069C0000F0A6F9002E53D10134E4B214F0800F0F
:1006AC005CD1314B01934FF400312E4800F0F8F936
:1006BC0088B1019B013B0193002BF4D1294E012100
:1006CC00304600F0D2F90021304600F0CEF901217D
:1006DC00304600F085F90121224800F08FF9224BB9
:1006EC00019322491F4800F0CEF90028B0D1019B9C
:1006FC00013B0193002BF4D1AAE76100002201F029
:10070C00FE01184800F0A9F9174B0193019B9BB10E
:10071C001749144800F0B7F9064678B9154911483D
:10072C0000F0BEF918B9019B013B0193EEE71149AA
:10073C000C4800F0D1F98FE71E468DE701268BE7B8
:10074C000D48FFF7EBFE2046FFF756FF0A20FFF798
:10075C00D5FEAC42A0D1304603B0F0BD0026FAE77E
:10076C00F00E000800540040A086010001000300B8
:10077C008200070000040010080F000882B000235C
:10078C00019309E0009B01330093009BB3F5E15FFB
:10079C00F8D3019B01330193019B984202D90023AA
:1007AC000093F2E702B0704700B583B0FFF7EEFCA0
:1007BC00FFF764FE1E48FFF7B1FE6820FFF740FF0D
:1007CC0018B91C48FFF7AAFEFEE71B48FFF7A6FE68
:1007DC00172216210F20FFF7C7FE1BE01748FFF763
:1007EC009DFE9DF80700FFF7A3FE3A20FFF786FE5B
:1007FC009DF80600FFF79CFE3A20FFF77FFE9DF860
:10080C000500FFF795FE0A20FFF778FE4FF47A708B
:10081C00FFF7B4FF0DF105020DF106010DF1070014
:10082C00FFF7E7FD0028D9D10548FFF777FEEDE784
:10083C00140F0008300F00084C0F0008680F000858
:10084C00700F00087047FEE7FEE7FEE7FEE7704713
:10085C007047704730B5CB7803F00F02964613F013
:10086C00100F03D091F802E04EEA020E0B78FBB1A8
:10087C000568002301E042610133072B17D80122E0
:10088C009A40B1F800C032EA0C0CF5D19C004FF044
:10089C000F0C0CFA04FC25EA0C050EFA04F42543A3
:1008AC00CC78282CE7D0482CE6D10261E4E705602F
:1008BC000B88FF2B25D94568002303E0CC78482C06
:1008CC001CD00133072B1BD803F1080C012202FAB0
:1008DC000CF2B1F800C032EA0C0CF2D19C004FF0D3
:1008EC000F0C0CFA04FC25EA0C0C0EFA04F444EA86
:1008FC000C05CC78282CE1D14261DFE70261E0E7FE
:10090C00456030BD70B586B004460E468588ADB2E4
:10091C0025F03F05ADB201A800F0E4F8039B2D4A89
:10092C00A2FB0312910C45EA9245A580228892B253
:10093C0022F0010292B222803268274DAA4220D8BE
:10094C0008465200B3FBF2F293B2032B00D80423F7
:10095C0001302084A38323889BB243F001032380BE
:10096C0023889BB223F4816323F00203B28871893C
:10097C000A4313432380B38932891343238106B07E
:10098C0070BDF5884BF6FF7085421DD002EB8202DC
:10099C0002EB8202B3FBF2F39BB243F48043C3F34A
:1009AC000B020AB943F0010343F400434FF496726F
:1009BC0001FB02F2094981FB0201D217C2EBA11221
:1009CC00013292B22284C5E702EB4202B3FBF2F28F
:1009DC0093B2E4E783DE1B43A0860100D34D621083
:1009EC0029B103889BB243F001030380704703884D
:1009FC009BB223F001039BB20380704729B103889B
:100A0C009BB243F480730380704703889BB223F43A
:100A1C0080739BB20380704729B103889BB243F467
:100A2C0000730380704703889BB223F400739BB25E
:100A3C000380704729B103889BB243F48063038021
:100A4C00704703889BB223F480639BB2038070478A
:100A5C0001827047008AC0B270471AB141F001019F
:100A6C000182704701F0FE01FAE739B103886FEAA1
:100A7C0043436FEA53439BB2038070470388C3F32D
:100A8C000E0303807047838A9BB2028B43EA0243B6
:100A9C0023F07F43994301D0002070470120704719
:100AAC0082B000230193009300900B0F019321F06F
:100ABC007F41019B4BB1009B14330093009B1B683F
:100ACC000B4207D0012002B07047090C009B183371
:100ADC000093F3E70020F6E721F07F41C94389B288
:100AEC0081827047284B5B6803F00C03042B28D0E1
:100AFC00082B29D0002B44D1244B0360224A536885
:100B0C00C3F30313DFF888C01CF803100368CB4051
:100B1C0043605168C1F302211CF8011023FA01F162
:100B2C0081605168C1F3C2211CF80110CB40C36035
:100B3C005268C2F3813217498A5CB3FBF2F303614A
:100B4C007047124B0360D9E70F4A53685268C3F3DE
:100B5C008343023312F4803F04D10F4A02FB03F3A8
:100B6C000360CBE7084A526812F4003F04D00A4AEB
:100B7C0002FB03F30360C1E7044A02FB03F30360C7
:100B8C00BCE7024B0360B9E70010024000127A0088
:100B9C00840F0008800F000800093D0021B1054AB0
:100BAC009369034393617047024A936923EA0003F4
:100BBC00936170470010024021B1054AD369034389
:100BCC00D3617047024AD36923EA0003D3617047AB
:100BDC000010024030B587B004460D46038A9BB224
:100BEC00CA8823F440531343038283899BB28988B8
:100BFC0028896A8901430A4323F4B05323F00C0378
:100C0C001343A381A38A9BB2AA8923F44073134391
:100C1C00A38201A8FFF766FF1D4B9C4224D0039BC7
:100C2C00A28912F4004F21D103EB830303EB83035E
:100C3C002A689200B3FBF2F3164AA2FB0312520984
:100C4C001101642002FB1033A28912F4004F16D15B
:100C5C001B0132330F4AA2FB0323C3F343130B4391
:100C6C009BB2238107B030BD049BD9E703EB830310
:100C7C0003EB83032A685200B3FBF2F3DCE7DB00DF
:100C8C003233044AA2FB0323C3F342130B43E7E7BB
:100C9C00003801401F85EB5129B183899BB243F485
:100CAC0000538381704783899BB223F400539BB21A
:100CBC0083817047C1F30801818070470388194212
:100CCC0001D00120704700207047000082B0002343
:100CDC00019300932C4A136843F4803313602A4B1E
:100CEC001B6803F400330093019B01330193009BB9
:100CFC001BB9019BB3F5A06FF1D1234B1B6813F407
:100D0C00003F06D001230093009B012B04D002B0BE
:100D1C00704700230093F7E71C4B1A6842F010024F
:100D2C001A601A6822F003021A601A6842F0020272
:100D3C001A60A3F580535A685A605A685A605A6808
:100D4C0042F480625A605A6822F47C125A605A68E3
:100D5C0042F4E8125A601A6842F080721A600A4B28
:100D6C001B6813F0007FFAD0074B5A6822F003027D
:100D7C005A605A6842F002025A60034B5B6803F0F7
:100D8C000C03082BF9D1C2E70010024000200240EE
:100D9C0008B5FFF79BFF08BD08B5104B1A6842F069
:100DAC0001021A6059680E4A0A405A601A6822F009
:100DBC00847222F480321A601A6822F480221A603B
:100DCC005A6822F4FE025A604FF41F029A60FFF731
:100DDC00DFFF044B044A9A6008BD00BF00100240BC
:100DEC000000FFF800ED00E000300008002103E0F7
:100DFC000B4B5B58435004310A480B4B42189A4238
:100E0C00F6D30A4A02E0002342F8043B084B9A420C
:100E1C00F9D3FFF7C1FF00F00FF8FFF7C5FC7047DF
:100E2C009C0F0008000000200000002000000020A3
:100E3C001C000020FEE7000070B500260C4C0D4B8A
:100E4C001D1BB6EBA50F09D1002600F019F80A4CB2
:100E5C000A4B1D1BB6EBA50F05D170BD54F8043B16
:100E6C0098470136EDE754F8043B98470136F1E713
:100E7C00940F0008940F0008940F0008980F0008B6
:100E8C00F8B500BFF8BC08BC9E467047F8B500BF6B
:080E9C00F8BC08BC9E4670473B
:100EA40053657454696D653A205354415254206615
:100EB40061696C0A0000000053657454696D653AF9
:100EC4002041444452206661696C0A0053657420D1
:100ED40074696D653A200000303132333435363769
:100EE4003839414243444546000000005363616E73
:100EF4006E696E6720493243206275732E2E2E0A66
:100F040000000000466F756E643A203078000000DF
:100F14003D3D3D2053544D3332204453313330371B
:100F2400204465627567203D3D3D0A004552524F9D
:100F3400523A20445331333037206E6F7420666F39
:100F4400756E64210A000000445331333037206643
:100F54006F756E642E205374617274696E672E2EE1
:100F64002E0A000054696D653A20000052656164E0
:100F7400206572726F72210A0000000002040608E4
:100F8400000000000102030401020304060708092B
:040F940075010008DB
:040F98004D010008FF
:0400000508000DF9E9
:00000001FF
