:020000040800F2
:10000000600700209D010008A5010008A701000865
:10001000A9010008AB010008AD01000800000000C4
:10002000000000000000000000000000AF01000818
:10003000B101000800000000B3010008B50100088C
:10004000B7010008B7010008B7010008B7010008B0
:10005000B7010008B7010008B7010008B7010008A0
:10006000B7010008B7010008B7010008B701000890
:10007000B7010008B7010008B7010008B701000880
:10008000B7010008B7010008B7010008B701000870
:10009000B7010008B7010008B7010008B701000860
:1000A000B7010008B7010008B7010008B701000850
:1000B00055100008B7010008B7010008310A000810
:1000C000F5090008B7010008B7010008B7010008EA
:1000D000B7010008B7010008B7010008B701000820
:1000E000B7010008B7010008B701000800F002F8E6
:1000F00000F045F80AA090E8000C82448344AAF17D
:100100000107DA4501D100F03AF8AFF2090EBAE87A
:100110000F0013F0010F18BFFB1A43F0010318473B
:10012000C0130000E0130000103A24BF78C878C163
:10013000FAD8520724BF30C830C144BF04680C60ED
:10014000704700000023002400250026103A28BF35
:1001500078C1FBD8520728BF30C148BF0B60704739
:10016000642900F09780782900F0D080732900F08E
:100170004082002070471FB51FBD10B510BD00F0B4
:100180006BFA1146FFF7F7FF01F038F900F089FA32
:1001900003B4FFF7F2FF03BC00F090FA0948804770
:1001A00009480047FEE7FEE7FEE7FEE7FEE7FEE759
:1001B000FEE7FEE7FEE7FEE704480549054A064B71
:1001C00070470000FD0F0008ED00000860010020EE
:1001D0006007002060030020600300200FB4044982
:1001E00010B503AA029800F009FA10BC5DF814FBE0
:1001F0006800002070B5044685690068C10601D515
:10020000302600E02026C00707D070BDD4E90121C8
:1002100030469047206A401C20626D1EF6D570BDA6
:1002200070B5044685690078C00707D170BDD4E970
:10023000012120209047206A401C20626D1EF6D5C7
:1002400070BD70B50C460546012A05D02878800699
:1002500000D5EA69002302E0012305E05B1C93421C
:1002600002D2E05C0028F9D1A869E618C01AA8619A
:10027000286A184428622846FFF7BCFF04E0D5E945
:10028000012114F8010B9047B442F8D32846FFF738
:10029000C7FF70BD2DE9F04106460024106875299E
:1002A000314616A510D0AFF30080002802DA404294
:1002B00013A507E031688A0701D512A502E04907B6
:1002C00004D511A5012401E0AFF3008000210A222A
:1002D00006F1240709E0B0FBF2FCB0FBF2F302FBED
:1002E0001C00303078541846491C0028F3D12346AE
:1002F0002A463046BDE8F04100F010B90000000089
:100300002D0000002B0000002000000070B5044606
:100310000D4621461068AFF300802188090502D5FB
:100320000F4A7A4402E00E4A7A440E32002104F168
:10033000240305E000F00F060009965D5E54491C99
:100340000028F7D120780023000704D5702D02D0B3
:1003500009B1022311322046BDE8704000F0DEB83A
:10036000641100002DE9F05F894604464FF0000A51
:10037000DFF824B1FB44C0F820A02046E16888479C
:1003800000287DD0252806D0D4E901219047206A95
:10039000401C2062F1E700255F462046E16888475F
:1003A0002028064607DB312E05D2B81910F8200C9C
:1003B00008B10543F1E7A80701D525F00405C4F805
:1003C0001CA00027C4F818A02A2E09D0304601F03E
:1003D00055F838B304EB8708303EC8F8186019E0C8
:1003E00059F8041B204604EB87029161E1688847B5
:1003F000012F064618D1E069002820DA25F02005F3
:100400001DE0D8F8180000EB800006EB4000303803
:10041000C8F818002046E1688847064601F02EF823
:100420000028EED1012F0AD02E2E08D12046E168F7
:1004300088477F1C0646022F45F02005C4DBA069D3
:10044000002803DA404245F00105A061E80701D029
:1004500025F01005A6B1A6F14100192802D82036D2
:1004600045F400654A463146204625604D46FFF773
:1004700077FE60B1012807D0ED1D25F0070000E0F0
:1004800007E000F1080978E705F1040975E730464F
:100490007AE7206ABDE8F09F3A11000010B50446E3
:1004A00003E000F039FF401C09D014F8010B0549A6
:1004B0000028F6D1BDE810400A2000F02DBF4FF013
:1004C000FF3010BD680000204FF0000200B5134659
:1004D00094469646203922BFA0E80C50A0E80C5064
:1004E000B1F12001BFF4F7AF090728BFA0E80C5015
:1004F00048BF0CC05DF804EB890028BF40F8042B0E
:1005000008BF704748BF20F8022B11F0804F18BF7A
:1005100000F8012B70477047704770472DE9F0478E
:100520000D4699469246044600F124080168880663
:1005300004D5E06921F01001216000E00120A8420B
:1005400001DD471B00E00027A1697A1902EB0900D1
:10055000081AA0612078C00602D42046FFF74AFEA0
:10056000002608E0D4E901211AF806009047206A25
:10057000401C761C20624E45F4DB2078C0060AD56C
:100580002046FFF737FE06E0D4E9012130209047EE
:10059000206A401C2062381EA7F10107F4DC07E046
:1005A000D4E9012118F805009047206A401C206218
:1005B000281EA5F10105F3DC2046FFF731FE207867
:1005C000000602D50220BDE8F0870120FBE710B548
:1005D000436913B1AFF3008001E0FFF732FE012061
:1005E00010BD127800F124010A7000224A70012225
:1005F000EDE711684FF0FF32E9E70000074B70B5F7
:100600000D467B4400F011F80446284600F020F81F
:1006100010B14FF0FF3070BD204670BD130D0000CB
:1006200001694A1C02610878704700B58FB0CDE9B6
:1006300001310021059105497944CDE903101146A6
:100640006846FFF78FFE0FB000BD0000E5FFFFFF1B
:10065000007B00F080007047754600F02BF8AE4636
:1006600005006946534620F00700854618B020B5BE
:10067000FFF7A2FDBDE820404FF000064FF0000755
:100680004FF000084FF0000BAC46ACE8C009ACE8F6
:10069000C009ACE8C009ACE8C00921F007018D46EB
:1006A000704710B50446AFF300802046BDE8104007
:1006B000FFF76EBD00487047080000200149182070
:1006C000ABBEFEE7260002007047000070B540F2A6
:1006D0001815C2F2000504462878AE78C10900F06A
:1006E0007F00A672617200F0E9FD2070687800F06A
:1006F000E5FD6070C6F38010E070C6F34010207115
:100700001F2016F0400F08BF3F20304000F0D6FDFC
:10071000A070E87800F0D2FD29796071084600F0F9
:10072000CDFD6979A071084600F0C8FDA979E07196
:10073000084600F0C3FD207270BD0000B0B540F265
:100740001814C2F2000420464021FFF7BDFE00202D
:1007500000F0D2FD054620706070A070022000F00D
:10076000CBFDE070012000F0C7FD20716071A57124
:10077000B0BD00002DE9F04184B040F21816C2F27D
:10078000000696F90070002F00F1918007F07F00BD
:1007900000F094FD71780546084600F08FFDF17871
:1007A0000446084600F08AFD31798DF80F000846AE
:1007B00000F084FD71798DF80E00084600F07EFD92
:1007C000B1798DF80D00084600F078FDB1788DF80C
:1007D0000C0001F020008DF80B003F2011F04008C4
:1007E00018BF1F20084000F069FD691CCAB23C2AEE
:1007F0008DF80A0023D30134E0B23C281ED303ADA8
:10080000B8F1000F0BD10DF10A000DF10F010DF140
:100810000E020DF10D03009500F0D6FD0DE00DF177
:100820000D0000900DF10A000DF10B010DF10F020A
:100830000DF10E03019500F0A3FD00240021C8B2C4
:1008400007F0800500F058FD28433070E0B200F05A
:1008500053FDB8F1000F70700BD09DF80A009DF8A1
:100860000B4000F049FD00F01F00204340F0400124
:1008700005E09DF80A0000F03FFD00F03F019DF803
:100880000F00B17000F038FD9DF80E10F0700846B2
:1008900000F032FD9DF80D103071084600F02CFD7F
:1008A0009DF80C107071084600F026FDB07104B080
:1008B000BDE8F081B0B543F600050446C4F2010579
:1008C0002846802100F07EFC0028F9D028462146E9
:1008D00000F0D8FCB0BD0000B0B586B044F2040012
:1008E000012100F0CBFA40F2002040F60004C1F6EE
:1008F0000300C4F2010405AD05902046294600F02E
:1009000021F804208DF817004FF48060ADF8140032
:100910002046294600F016F84FF4E13001900020FF
:100920004FF4402104F54054ADF81000CDE9020128
:1009300001A9204600F04CFC2046012100F038FCC3
:1009400006B0B0BD2DE9F041CA7802F00F0CD30615
:1009500044BF8B784CEA030C09880B0621D005684C
:1009600000234FF001084FF00F0E002608E000BFF3
:10097000282A08BF47610136082E03F104030FD06F
:1009800008FA06F70F42F6D00EFA03F425EA04043B
:100990000CFA03F5482A45EA0405E9D10761EAE7BC
:1009A0000560B1F5807F38BFBDE8F0814468002361
:1009B0004FF4807E4FF00F08002607E0282A08BF7A
:1009C00047610136082E03F1040310D00EFA06F732
:1009D00007EA0105BD42F4D108FA03F5AC430CFA6D
:1009E00003F5482A44EA0504E8D10761E9E74460D1
:1009F000BDE8F08145F21440C4F2000001884A05C8
:100A000009D50288002322F48062028040F25C1241
:100A1000C2F2000213700A0502D530F8042C0288D5
:100A2000C90558BF7047018821F480710180704763
:100A3000B0B582B045F20044C4F20004A18A880730
:100A400010D440F25C10C2F2000002784B061AD5B6
:100A5000CAB9208A8DF807009DF8070000F004F954
:100A600002B0B0BD208B40F25C15C0F38000C2F232
:100A70000005287000F0EEF82878B8B100F01CF9F5
:100A8000208202B0B0BD0B0608D53AB100F014F9CF
:100A90000146204600F098F802B0B0BDC90605D561
:100AA000218821800021017000F0FEF802B0B0BD65
:100AB0000288002942F0010308BF22F001030380ED
:100AC0007047000010B545F20041C4F200014FF438
:100AD0008004884208BF4FF400142046012100F032
:100AE000C1F92046002100F0BDF910BD002A82881E
:100AF0000CBF22EA010111438180704770B586B0B6
:100B0000044680880D4620F03F0601A800F0C2F997
:100B100003994DF68360C4F21B30A1FB000346EA43
:100B20009340A080208820F0010020802A6848F2AD
:100B3000A060C0F2010082424FEA934008D8520000
:100B4000B1FBF2F14FF6FC72114208BF042125E01F
:100B5000EB884BF6FF76B34204D102EB4202B1FBC5
:100B6000F2F105E019235A43B1FBF2F141F480415F
:100B70004FF49672504344F6D352C1F26202A0FB86
:100B8000020208466FF31F30B0FA80F040090843B4
:100B900048F20001CFF6FF71014390090130208433
:100BA000A18320884FF6F53140F001002080208895
:100BB0006A890840A988084310432080A8892989A8
:100BC0000843208106B070BD01827047B0B586B081
:100BD00005460820012100F051F94FF400100121D1
:100BE00000F034F9C02045F20044C1F60340C4F2DD
:100BF0000004059004F5384005A9FFF7A3FE204640
:100C0000FFF760FF0020CBF6FF7002906800ADF8A0
:100C10000C0040F20040C4F20000CDF80E0048F293
:100C2000A060C0F20100019001A92046FFF766FF15
:100C300020464FF4E0610122FFF758FF1F2000F02B
:100C400025FB202000F022FB20460121FFF730FF8A
:100C500006B0B0BDB0FA80F040F200014009C2F227
:100C6000000108707047000040F20001C2F200016C
:100C70000A784AB140F2581200F03F00C2F2000276
:100C8000107000200870704740F25811C2F2000145
:100C90000A7840F21813C2F200039854501C00F076
:100CA0003F0008707047000040F20000C2F20000F0
:100CB000012101707047000040F25811C2F200019A
:100CC0000A7840F21810C2F20000805C013202F093
:100CD0003F020A70704700002DE9F04F85B040F2E6
:100CE0005A1A40F2141BC2F2000AC2F2000BBAF800
:100CF0000000BBF80010884202D105B0BDE8F08FBB
:100D000040F2BC08C2F200084FF00B090EE000BF31
:100D10001FA0FFF7C3FBBAF80000013000F0070086
:100D2000AAF80000BBF800108842E6D081B201FBAF
:100D30000980427A002AEBD101FB09F3C47842789A
:100D4000817818F80330BCB1047990F805C0867931
:100D5000C779002C41F2DA44007AC0F6000441F26F
:100D6000D745C0F6000508BF2C468DE8D00003909B
:100D70000CA0CDF810C008E047798679C579007AD3
:100D8000CDE90065029014A00397FFF727FAC2E7A8
:100D90005B5254435D20434C4F434B2048414C54DD
:100DA00045440D005B5254435D20253032643A25A2
:100DB0003032643A253032642025732020253032C9
:100DC000642F253032642F323025303264202044A5
:100DD00061793A25640D0A005B5254435D20253049
:100DE00032643A253032643A25303264202025308E
:100DF00032642F253032642F323025303264202087
:100E00004461793A25640D0A00000000B0B540F253
:100E10001414C2F200042088421C40F25A10C2F29C
:100E20000000018802F007058D4202BF013101F088
:100E300007010180208840F2BC01C2F200010B22B0
:100E400000FB0210FFF742FC2580B0BD002941F2F3
:100E50001C01C4F202010A680CBF22EA0000104320
:100E600008607047002941F21001C4F202010A68CB
:100E70000CBF22EA0000104308607047002941F2CD
:100E80001801C4F202010A680CBF22EA00001043F4
:100E90000860704710B541F20404C4F202042268ED
:100EA00002F00C02082A41F20022C0F27A021CD1A0
:100EB0002368D4F800C0C3F3834E5FEACC330EF14D
:100EC000020C06D440F60012C0F23D020CFB02F206
:100ED0000BE023689B0302D40CFB02F205E040F612
:100EE0000012C0F23D020CFB02F20260226841F2E5
:100EF000C743C2F30312C0F600039A5C0168D140F5
:100F000041602268C2F302229A5C21FA02F28260F6
:100F10002268C2F3C2229A5C41F2C343D140C1604D
:100F20002268C0F60003C2F381329A5CB1FBF2F191
:100F3000016110BD80B500F001F880BD82B041F2C2
:100F400004000021C4F202000191009150F8041C39
:100F500041F4803140F8041C50F8041C01F40031C5
:100F60000091019901310191009919B90199B1F5E7
:100F7000A06FF1D150F8041C890354BF0021012156
:100F800000910099012936D142F20001C4F2020118
:100F90000A6842F010020A600A6822F007020A603A
:100FA0000A6842F002020A6001680160016801609B
:100FB000016841F480610160016821F47C110160E5
:100FC000016841F4E811016050F8041C41F080719F
:100FD00040F8041C50F8041C8901FBD5016821F07D
:100FE00003010160016841F002010160016801F044
:100FF0000C010829FAD102B07047000080B541F217
:101000000000C4F202000168002241F00101016009
:101010004168CFF6FF021140416001684FF6FF7250
:10102000CFF6F66211400160016821F48021016071
:10103000416821F4FE0141604FF41F018160FFF718
:1010400079FF4EF60850CEF200004FF000610160CB
:1010500080BD000080B54FF08040012100F01AF8FB
:10106000002808BF80BD4FF08040012100F004F847
:1010700000F098F880BD0000C9430182704700006D
:101080000288002942F0010308BF22F00103038017
:1010900070470000028A80890A4018BF0122084078
:1010A00018BF012010407047002A82890CBF22EA35
:1010B000010111438181704740F6FF33B0F800C051
:1010C000C4F2000398420FDCB0F1804F1ED040F212
:1010D0000043C4F20003984218D040F60003C4F263
:1010E0000003984212D016E040F60043C4F2000319
:1010F00098420BD043F20043C4F20103984205D05A
:1011000042F60043C4F20103984204D14B882CF00C
:10111000700243EA020C41F2004240F48063C4F2E0
:101120000002934204D0CA882CF4407342EA030CB4
:10113000A0F800C08A888285A0F18042A2F596328C
:101140000B884FEAB222072A038507D8012303FA46
:1011500002F212F0E50F1CBF097A0186012181829B
:101160007047000080B584B001200121FFF76EFEBA
:1011700041F61F40019042F20F70029001A94FF01A
:101180008040FFF799FF4FF0804001210122FFF7D7
:101190008BFF00F08BF84FF080400121FFF770FFCC
:1011A00004B080BD80B5FFF7E5FAFFF72FFE80BDE4
:1011B0008289002942F4005308BF22F4005383813E
:1011C000704700000088084018BF012070470000E9
:1011D00070B586B00446008A0D46C98820F4405098
:1011E00008432082A0894EF6F3110840A9882A8975
:1011F0006B89084310431843A081A08AA98920F471
:101200004070084301AEA0823046FFF743FE43F62C
:10121000000106F10800C4F201018C4208BF06F18A
:101220000C0000681922B4F90C1050432A680223FC
:10123000002948BF012302FA03F1B0FBF1F048F2A4
:101240001F51C5F2EB11A0FB01235A096FF0630394
:1012500002FB0300B4F90C300426002B48BF032620
:1012600000FA06F000F13200A0FB01014FF00F0080
:1012700048BF072000EA511040EA0210208106B062
:1012800070BD00006FF35F2181807047002848BF68
:10129000704700F01F01012202FA01F14EF2001224
:1012A0004009CEF2000242F8201070474EF20010C2
:1012B000CEF200004FF0805101607047010901EB50
:1012C000810100F00F0000EB4100C0B27047000048
:1012D00006A2024412F8012C8907114608BF1D21FD
:1012E000022818BF1146C8B2704700BF1F1C1F1E3E
:1012F0001F1E1F1F1E1F1E1F4CF6CD41CCF6CC41DA
:10130000A0FB0112D10801EB8102A0EB420040EAF0
:101310000110C0B27047000010B50446C0B2FFF71C
:10132000C9FA204610BD00002DE9F0410F460978AA
:1013300016464A1C3A700446307819789846D5B259
:10134000FFF7C6FF854211D901203870317801318D
:10135000CAB20D2A317009D3307098F800000130FC
:10136000C1B2632988BF002088F8000020780130CE
:10137000C1B2072988BF01202070BDE8F0810000BC
:1013800080B590F800C0BCF10C0F13D0BCF10B0F6E
:1013900013D14FF00C0C80F800C0087888B1DDE95B
:1013A00002EC002008701046194672466346FFF7AB
:1013B000BBFF80BD0121017080BD0CF101010170F6
:1013C00080BD2020087080BD80B590F800C00CF171
:1013D000010C5FFA8CFEBEF1180F80F800C038BF18
:1013E00080BDDDF808C04FF0000E80F800E0084630
:1013F00011461A466346FFF797FF80BDFFF7FEFDD3
:10140000FFF76AFAFFF7AEFE07A0FFF747F8FFF70E
:1014100095F96820FFF7DAFB0CA06821FEF7DEFEE5
:10142000FFF75AFCFCE700BF5B5359535D20445360
:101430003133303720656D756C61746F7220737451
:10144000617274696E672E2E2E0D00005B53595326
:101450005D2052656164792E204C697374656E69F4
:101460006E67206F6E204932432061646472657339
:1014700073203078253032580D0A000030380A28A1
:1014800001D20120704700207047303132333435AB
:1014900036373839414243444546403058003031B0
:1014A00032333435363738396162636465664030CB
:1014B00078000400000800000000000000020001A5
:1014C00000001002040608000000000102030401ED
:1014D00002030406070809414D00504D00000000BA
:1014E0000015000800000020080000002801000886
:1014F00008150008080000205807000044010008F3
:081500000100000000000000E2
:04000005080000ED02
:00000001FF
