:020000040800F2
:10000000C006002089010008910100089301000842
:100010009501000897010008990100080000000000
:100020000000000000000000000000009B0100082C
:100030009D010008000000009F010008A1010008C8
:10004000A3010008A3010008A3010008A301000800
:10005000A3010008A3010008A3010008A3010008F0
:10006000A3010008A3010008A3010008A3010008E0
:10007000A3010008A3010008A3010008A3010008D0
:10008000A3010008A3010008A3010008A3010008C0
:10009000A3010008A3010008A3010008A3010008B0
:1000A000A3010008A3010008A3010008A10800089B
:1000B000ED090008A3010008A3010008A30100083E
:1000C000A3010008A3010008A3010008A301000880
:1000D000A30100087D0D0008A3010008A30100088A
:1000E000A3010008A3010008A301000800F002F822
:1000F00000F03AF80AA090E8000C82448344AAF188
:100100000107DA4501D100F02FF8AFF2090EBAE885
:100110000F0013F0010F18BFFB1A43F0010318473B
:100120007813000098130000103A24BF78C878C1F3
:10013000FAD8520724BF30C830C144BF04680C60ED
:10014000704700000023002400250026103A28BF35
:1001500078C1FBD8520728BF30C148BF0B60704739
:100160001FB51FBD10B510BD00F031F81146FFF7E7
:10017000F7FF00F091FF00F04FF803B4FFF7F2FF34
:1001800003BC00F057F800000948804709480047C1
:10019000FEE7FEE7FEE7FEE7FEE7FEE7FEE7FEE737
:1001A000FEE7FEE704480549054A064B7047000094
:1001B00001060008ED000008C0000020C006002075
:1001C000C0020020C002002070477047704775468B
:1001D00000F02CF8AE4605006946534620F00700B3
:1001E000854618B020B5FFF7DDFFBDE820404FF091
:1001F00000064FF000074FF000084FF0000B21F011
:100200000701AC46ACE8C009ACE8C009ACE8C009DD
:10021000ACE8C0098D46704710B50446AFF30080C6
:100220002046BDE81040FFF7A8BF00000048704717
:100230006000002001491820ABBEFEE72600020046
:1002400070472DE9F04102460025002600200023DA
:100250000024002791F803C00CF00F0591F803C0AB
:100260000CF0100CBCF1000F03D091F802C04CEA66
:10027000050591F800C0BCF1000F31D014680020D2
:100280002BE04FF0010C0CFA00F3B1F800C00CEABF
:1002900003069E4220D183004FF00F0C0CFA03F7A7
:1002A000BC4305FA03FC4CEA040491F803C0BCF11A
:1002B000280F06D14FF0010C0CFA00FCC2F814C054
:1002C0000AE091F803C0BCF1480F05D14FF0010CD2
:1002D0000CFA00FCC2F810C0401C0828D1D31460EE
:1002E000B1F800C0BCF1FF0F34DD546800202EE0EF
:1002F00000F1080C4FF0010808FA0CF3B1F800C047
:100300000CEA03069E4221D183004FF00F0C0CFA39
:1003100003F7BC4305FA03FC4CEA040491F803C05C
:10032000BCF1280F05D100F1080C08FA0CF8C2F84E
:10033000148091F803C0BCF1480F07D100F1080CFC
:100340004FF0010808FA0CF8C2F81080401C082889
:10035000CED35460BDE8F0814161704701617047C0
:1003600029B1064AD2690243044BDA6104E0034A28
:10037000D2698243014BDA617047000000100240ED
:1003800029B1064A92690243044B9A6104E0034A88
:1003900092698243014B9A6170470000001002404D
:1003A00030B500210022002400232D4D6D6805F09A
:1003B0000C0121B1042905D0082923D105E0294DDC
:1003C000056022E0274D05601FE0254D6D6805F4AE
:1003D0007012234D6D6805F48034022505EB9242BE
:1003E0001CB9214D554305600BE01D4D6D6805F4AA
:1003F00000351DB11C4D5543056002E0194D5543B4
:10040000056002E0174D056000BF00BF144D6D6828
:1004100005F0F0010909154D6B5C0568DD4045608C
:100420000F4D6D6805F4E061090A104D6B5C45687D
:10043000DD4085600A4D6D6805F46051C90A0B4DB9
:100440006B5C4568DD40C560054D6D6805F4404155
:10045000890B074D6B5CC568B5FBF3F5056130BDD5
:100460000010024000127A0000093D001500002033
:100470002500002010B500F001F810BD0CB50020DB
:10048000019000903348006840F4803031490860A2
:1004900000BF3048006800F4003000900198401C14
:1004A0000190009818B90198B0F5A06FF1D12948D2
:1004B000006800F4003010B10120009001E000203D
:1004C00000900098012843D12348006840F01000B4
:1004D000214908600846006820F0070008600846C7
:1004E000006840F0020008601A48406819494860F6
:1004F0000846406848600846406840F480604860AC
:100500000846406820F47C1048600846406840F483
:10051000E81048600846006840F08070086000BF3E
:100520000C48006800F000700028F9D009484068C5
:1005300020F00300074948600846406840F0020088
:10054000486000BF0348406800F00C000828F9D15B
:100550000CBD0000001002400020024010B5002138
:1005600000200022214B5B6803F00C0121B104291B
:1005700006D0082928D107E01D4B1E4C236027E038
:100580001B4B1C4C236023E0184B5B6803F470107A
:10059000164B5B6803F48032022303EB904022B9D0
:1005A000154B4343134C23600DE0104B5B6803F481
:1005B000003323B1104B43430E4C236003E00C4B3C
:1005C00043430C4C236003E0094B0A4C236000BFFB
:1005D00000BF064B5B68C3F30313084CE15C054B9B
:1005E0001B68CB40034C236010BD0000001002408C
:1005F00000127A002C00002000093D00300000208D
:1006000010B51348006840F0010011490860084621
:100610004068104908400E494860084600680E4985
:1006200008400B4908600846006820F480200860F4
:100630000846406820F4FE0048604FF41F008860C0
:10064000FFF718FF4FF000600449086010BD00007C
:10065000001002400000FFF8FFFFF6FE08ED00E08A
:10066000F0B50C46154600220021068C4FF6FE77A9
:100670003E400684028B018C4FF60C7632407E1C85
:1006800006EA03162E433243104EB0420ED0104EEF
:10069000B0420BD0B0F1804F08D00E4EB04205D022
:1006A0000D4EB04202D00D4EB04206D14FF6FD764F
:1006B000314044F00106314305E04FF6F576314014
:1006C00044F00106314302830184F0BD002C014057
:1006D000003401400004004000080040000C0040CD
:1006E000F0B50C461546002200210026078C4FF677
:1006F000EF7C07EA0C070784028B018C4FF6FF772B
:1007000007EA041640F6FF473A404FF6FF7707EA3C
:1007100003373A434FF6FF7707EA05273A43114F6D
:10072000B8420ED0104FB8420BD0B0F1804F08D075
:100730000E4FB84205D00E4FB84202D00D4FB8420E
:1007400006D14FF6DF77394046F01007394305E010
:100750004FF65F77394044F0100739430283018434
:10076000F0BD0000002C01400034014000040040B6
:1007700000080040000C0040F0B50C461546002271
:1007800000210026078C4FF6FF6C07EA0C07078450
:10079000828B018C4FF6FF7707EA04264FF60C7721
:1007A0003A404FF6FF7707EA03172F433A43114FBA
:1007B000B8420ED0104FB8420BD0B0F1804F08D0E5
:1007C0000E4FB84205D00E4FB84202D00D4FB8427E
:1007D00006D14FF6FF57394046F48077394305E09C
:1007E0004FF2FF57394044F48077394382830184C4
:1007F000F0BD0000002C0140003401400004004026
:1008000000080040000C0040F0B50C4615460022E0
:1008100000210026078C4EF6FF7C07EA0C070784B0
:10082000828B018C4FF6FF7707EA043640F6FF47CC
:100830003A404FF6FF7707EA05273A434FF6FF772E
:1008400007EA03373A43114FB8420ED0104FB8426F
:100850000BD0B0F1804F08D00E4FB84205D00E4FEC
:10086000B84202D00D4FB84206D14DF6FF7739405D
:1008700046F48057394305E047F6FF57394044F4C2
:100880008057394382830184F0BD0000002C014071
:10089000003401400004004000080040000C00400B
:1008A00010B502214B4800F005F900B910BD022136
:1008B000484800F0EDF84848007807287ED2DFE885
:1008C00000F080040F1A3857670001214348FFF7F2
:1008D00045FD022040490870502000F0FDFB76E005
:1008E00001213E48FFF738FD03203B4908703220C4
:1008F00000F0F2FB6BE001213848FFF72FFD0420E8
:100900003549087000BF364A1278D010344A127840
:1009100002F00702C2F10701324A125C0A4102F0FA
:1009200001020AB1462000E01A20044600F0D4FB80
:100930004DE02B480078401C294908700846007893
:1009400028280ADA01212548FFF706FD032022495D
:100950000870322000F0C0FB09E001211F48FFF7BA
:10096000FBFC05201C490870322000F0B5FB2EE08E
:1009700001211A48FFF7F2FC01220221154800F07C
:1009800001F90620144908700A2000F0A5FB1EE0BA
:10099000002202210F4800F0F5F800200E490870EF
:1009A00000F04EFB00214FF0804000F05DF9012186
:1009B000880700F070F801200B4900E001E00870A2
:1009C00005E000220221034800F0DCF800BF00BF70
:1009D00000BF6BE7002C0140000000200008014030
:1009E00001000020100000200200002010B50221AC
:1009F000480700F05FF8002841D00221480700F0C6
:100A000047F81F48007868B94FF0804000F04FF871
:100A10001C49088001201A4908700021800700F055
:100A200007F92CE04FF0804000F041F804461548EB
:100A30000088844203DB13480088201A06E011482E
:100A400000884FF6FF71081A2044401C0E490860C8
:100A500000200B4908700221480700F0E9F80A4815
:100A6000006844F25061884208D30748006847F2A2
:100A70003051884202D801200449087000BF10BDDF
:100A800006000020080000200C0000200A000020C2
:100A9000CA430282704721B1028842F001020280FB
:100AA00004E002884FF6FE731A4002807047014648
:100AB000888E704730B50246002000230024158A36
:100AC00005EA0103958905EA010413B10CB101207F
:100AD00000E0002030BD000070B505460C462448FB
:100AE00085420ED0234885420BD0B5F1804F08D007
:100AF0002148854205D02148854202D020488542C0
:100B000000D100E000BF208850B92389A288618805
:100B10002846FFF7A5FDE188284600F0A7F825E064
:100B2000208804280AD12389A28861882846FFF7F3
:100B3000D7FDE188284600F0A2F817E020880828B1
:100B40000AD12389A28861882846FFF715FEE1882B
:100B5000284600F0A1F809E02389A2886188284688
:100B6000FFF752FEE188284600F09FF870BD0000B4
:100B7000002C014000340140000400400008004007
:100B8000000C00401AB183890B43838102E0838902
:100B90008B4383817047000070B50024002200233E
:100BA000058C4FF6FE7635400584028C8388048BD5
:100BB0004FF68F752C40B51E2C400D882C43751EAA
:100BC0002A400D892A434D882A43144DA8420BD050
:100BD000134DA84208D0134DA84205D0124DA8428B
:100BE00002D0124DA84213D14FF6F7752A404D8915
:100BF0002A434FF6FB752A408D882A434FF6FF653E
:100C00002B404FF6FF552B408D892B43CD892B432D
:100C100083800483CD888586028470BD002C0140CA
:100C200000340140004001400044014000480140C0
:100C30000A460021018C4FF6FD73194011430184CF
:100C400070470A460021018B4FF6F7731940114394
:100C5000018370470021018041808180C180018132
:100C600041818181C181704781847047028B4FF639
:100C7000F3731A400283028B0A4302837047028B8C
:100C80004FF2FF331A400283028B4FF6FF7303EAE1
:100C900001231A4302837047828B4FF6F3731A4085
:100CA0008283828B0A4382837047828B4FF2FF33A9
:100CB0001A408283828B4FF6FF7303EA01231A43A3
:100CC00082837047002202881D4B98420ED01D4B34
:100CD00098420BD0B0F1804F08D01B4B984205D002
:100CE0001A4B984202D01A4B984204D14FF68F7398
:100CF0001A404B881A43174B984207D0164B98421C
:100D000004D04FF6FF431A40CB881A4302808B88E9
:100D100083850B8803850A4B98420BD0094B984278
:100D200008D00E4B984205D00D4B984202D00D4B87
:100D3000984201D10B7A0386012383827047000019
:100D4000002C014000340140000400400008004035
:100D5000000C004000100040001400400040014022
:100D600000440140004801404FF6FF71818000219E
:100D70000180C180418001727047000010B540F2CF
:100D80002551124800F041F8F0B11048001D0088CC
:100D9000C4B20D2C01D00A2C06D10D4800780028D1
:100DA00011DD00F0D1F90EE0094800781F2807DABC
:100DB00007490878411C064A117006490C5402E0A4
:100DC00000200349087000BF10BD0000003801403A
:100DD000050000204000002021B1828942F4005229
:100DE000828104E082894DF6FF731A408281704748
:100DF00002460020B1F5007F00D100BF13880B40F0
:100E00000BB1012000E00020704770B502460024BD
:100E100000230025002040F66A16B14200D100BF31
:100E2000C1F3421501F01F03012606FA03F3012D59
:100E300002D19689334006E0022D02D1168A334052
:100E400001E0968A33400C12012606FA04F4168853
:100E5000344013B10CB1012000E0002070BDF0B5AA
:100E60000346002400260025002040F66A17B942F8
:100E700000D100BF1846C1F3421401F01F0601273C
:100E800007FA06F5012C01D10C3004E0022C01D147
:100E9000103000E014301AB107682F43076002E0F9
:100EA0000768AF430760F0BD2DE9F04786B00546FF
:100EB0000E460024A24600BFA1460027B08900B11B
:100EC00000BF2F462C8A4CF6FF700440F088044384
:100ED0002C82AC894EF6F3100440B0883189084367
:100EE000718908430443AC81AC8A4FF6FF4004404B
:100EF000B0890443AC8201A8FFF752FA1F48874229
:100F000002D1DDF810A001E0DDF80CA0A88900F402
:100F1000004040B10AEBCA0000EB0A1031684900FA
:100F2000B0FBF1F807E00AEBCA0000EB0A103168E9
:100F30008900B0FBF1F86420B8FBF0F0040120094F
:100F4000642101FB1089A88900F4004040B13220DF
:100F500000EBC900B0FBF1F000F00700044308E02B
:100F6000322000EB09106421B0FBF1F000F00F001B
:100F700004432C8106B0BDE8F08700000038014032
:100F800000280DDB00BF00BF00F01F0201219140CF
:100F90004209920002F1E022C2F8001100BF00BF36
:100FA0007047000010B5002804DB0A07130E054A3D
:100FB000135406E00A07140E034A00F00F031B1F28
:100FC000D45410BD00E400E018ED00E00B480078B8
:100FD0000B490870002048700A480078887000208B
:100FE000C87008460078497808440549897808445B
:100FF0000349C9780844024908717047030000207A
:10100000100000200400002010B500214FF08040A7
:10101000FFF741FD00F02EF800200649087001207E
:101020000549087001210548FFF796F9502000F0A6
:1010300053F810BD0100002000000020000801400E
:1010400008B50120ADF8000048208DF8030003200A
:101050008DF8020069460548FFF7F3F800200449BF
:10106000087002214807FFF7E3FD08BD00080140B2
:101070000600002008B50120ADF8000014208DF80E
:10108000030003208DF8020069460248FFF7D9F8F3
:1010900008BD00000008014000F0AAF800F0AEF81A
:1010A00000F0F4F800F070F911E00948007830B170
:1010B000002007490870FFF789FFFFF7A5FF0548E3
:1010C000007820B100200349087000F037F9ECE700
:1010D0000A0000200200002010B5044608480088DD
:1010E0002044074910310880022105482438FFF7C1
:1010F000CFFC0122022102482438FFF743FD10BD36
:10110000242C014070B503460C46154600210022F0
:1011100009E008464E1CF1B2185C303802EB82063A
:1011200000EB460082B2A14205DA585C302802DBAF
:10113000585C3928EDDD09B1FF2A01DD002070BDC2
:101140002A700120FBE700002DE9F0418AB0244815
:101150000578002005E02349095C02AA1154411CCE
:10116000C8B2A842F7DB00201D4908700026002401
:101170002BE002A8005D482803D002A8005D542897
:1011800021D102A9601C085C3D281CD102A810F8DE
:101190000480A01CC7B200200190EA1BD1B202AAB1
:1011A000D01901AAFFF7AEFF60B1B8F1480F04D122
:1011B0009DF804000C49087003E09DF804000B49F9
:1011C0000870012600BF601CC4B2601CA842D0DBBE
:1011D0001EB1FFF7FBFE00F0B1F80AB0BDE8F081E8
:1011E0000500002040000020030000200400002033
:1011F00010B5FFF705FAFFF7B1F910BD00B587B0DC
:101200000121C802FFF7BCF804A8FFF7ADFD1C4898
:1012100000681C49B0FBF1F0401E80B2ADF8100030
:101220004FF6FF70ADF814000020ADF8120004A9CD
:101230001548FFF747FD6846FFF70CFD0020ADF8A5
:101240000000ADF80200ADF8060069460E48FFF751
:10125000A3FC00210C48FFF7F4FC002202210A48FD
:10126000FFF790FC01210848FFF715FC00211B2027
:10127000FFF798FE1B20FFF783FE07B000BD0000BC
:101280002C00002040420F00002C014000B587B028
:1012900001210846FFF764F801210420FFF770F8E8
:1012A0000120ADF8180048208DF81B0003208DF8B0
:1012B0001A0006A91E48FEF7C4FF03A8FFF754FD55
:1012C0001C4800681C49B0FBF1F0401E80B2ADF82C
:1012D0000C004FF6FF70ADF8100003A94FF08040EE
:1012E000FFF7F0FC0020ADF800000220ADF802008E
:1012F0000120ADF804000020ADF806000F20ADF885
:10130000080069464FF08040FFF7E6FB012202210A
:101310004807FFF737FC01218807FFF7BCFB0121D5
:101320001C20FFF73FFE1C20FFF72AFE07B000BD80
:10133000000801402C00002040420F0010B50CA016
:1013400000F078F80B49087800F07FF80AA000F068
:1013500071F80849887800F078F808A000F06AF879
:101360000449087900F071F806A000F063F810BD98
:10137000483D00001000002020543D0020434B3D1C
:10138000000000000D0A000000B585B0012144F204
:101390000400FEF7F5FF4FF40070ADF810001820C0
:1013A0008DF8130003208DF8120004A91748FEF7EA
:1013B00048FF4FF48060ADF8100004208DF8130052
:1013C00004A91248FEF73DFF4FF4E13000900020E1
:1013D000ADF80400ADF80600ADF80800ADF80C005B
:1013E0000C20ADF80A0069460948FFF75DFD0122AF
:1013F00040F225510648FFF732FD01210448FFF76E
:10140000EBFC2520FFF7BCFD05B000BD0008014046
:101410000038014010B5044600BF80210448FFF7A2
:10142000E7FC0028F9D00248001D048010BD000030
:101430000038014010B5044603E014F8010BFFF733
:10144000E9FF20780028F8D110BD70B50446642C5F
:1014500007DB642094FBF0F03030C5B22846FFF77C
:10146000D9FF0A2C0CDB642094FBF0F100FB114047
:101470000A2190FBF1F03030C5B22846FFF7CAFFD1
:101480000A2094FBF0F100FB11403030C5B2284631
:10149000FFF7C0FF70BD0000B81400080000002076
:1014A0004000000028010008F81400084000002057
:1014B00080060000440100080000001E1C0000001F
:1014C000000000000000000000000000000000001C
:1014D00000010203040102030406070809020406CE
:1014E0000800000000A24A04000000000000000004
:0814F0000102030406070809CC
:04000005080000ED02
:00000001FF